:020000040800F2
:10000000200C00209D01000817150008551000085D
:1000100015150008F90200089518000800000000F6
:100020000000000000000000000000001916000899
:10003000FB020008000000004B1500081B1600081A
:10004000B7010008B7010008B7010008B7010008B0
:10005000B7010008B7010008B7010008B7010008A0
:10006000B7010008B7010008B7010008B701000890
:10007000B7010008B7010008B7010008B701000880
:10008000B7010008B7010008B7010008B701000870
:10009000B7010008B7010008B7010008B701000860
:1000A000B7010008B7010008B7010008B701000850
:1000B000B7010008B7010008B7010008B701000840
:1000C000B7010008B7010008B7010008B701000830
:1000D000B7010008C9160008B70100082917000871
:1000E000B7010008B7010008B7010008B701000810
:1000F000B7010008B7010008B7010008B701000800
:10010000B7010008B7010008B7010008B7010008EF
:10011000B7010008B7010008B7010008B7010008DF
:10012000B7010008B7010008B7010008B7010008CF
:10013000B7010008B7010008B7010008B7010008BF
:10014000B7010008B7010008B7010008B7010008AF
:10015000B7010008B7010008B7010008B70100089F
:10016000B7010008B7010008B7010008B70100088F
:10017000B7010008B7010008B7010008000000003F
:10018000B7010008B7010008DFF80CD000F0A2F8B2
:1001900000480047351B0008200C00200648804717
:1001A00006480047FEE7FEE7FEE7FEE7FEE7FEE75C
:1001B000FEE7FEE7FEE7FEE7B91600088901000842
:1001C0002DE9F05F0546002092469B46884606468C
:1001D000814640241BE0284641464746224600F01F
:1001E00069F853465A46C01A914110D31146184631
:1001F000224600F050F82D1A67EB01084F462246C0
:100200000120002100F047F817EB00094E41201EA5
:10021000A4F10104DFDC484631462A464346BDE8E6
:10022000F09FD2B201E000F8012B491EFBD27047CB
:100230000022F6E710B513460A4604461946FFF7B2
:10024000F0FF204610BD30B505462A460B4612F891
:10025000010B13F8014B08B1A042F8D01CB10028E3
:1002600002D06D1CF1E7284630BD30B50B46014683
:1002700000202022012409E021FA02F59D4205D345
:1002800003FA02F5491B04FA02F52844151EA2F1EF
:100290000102F1DC30BD202A04DB203A00FA02F131
:1002A000002070479140C2F1200320FA03F3194364
:1002B00090407047202A04DB203A21FA02F0002106
:1002C000704721FA02F3D040C2F120029140084366
:1002D00019467047064C074D06E0E06840F0010300
:1002E00094E8070098471034AC42F6D3FFF750FF6C
:1002F0006C1B00088C1B0008FEE7704770B50024DB
:1003000011A001F0C9FA4FF4FA6000F06BFB4FF452
:10031000FA75214611A001F0BFFA2B46002218A160
:1003200018A000F0F3F828B1214617A001F0B4FAA4
:10033000012070BD284600F055FB641CE4B20A2C75
:10034000E7D3002070BD00000D0A4154207465738E
:10035000742E2E2E2E2E0D0A000000000D0A415480
:100360002054657374696E67206672657175656E79
:1003700063793A2025642E2E2E2E2E2E0D0A000093
:100380004F4B0000415400000D0A41542054657346
:10039000742073746172746564207375636365732C
:1003A0007366756C6C793A2025642E2E2E2E2E2EB7
:1003B0000D0A000070B52B4CB4F8000400042BD5D6
:1003C000294D05F10C0000BF50E8001F21F020016D
:1003D00040E80012002AF7D1B4F800140020C1F35D
:1003E0000E0160541F4921A001F056FAB4F8000430
:1003F0006FF30E00A4F80004B4F8000420F40040E9
:10040000A4F8000415F10C0555E8000F40F0200099
:1004100045E800010029F7D11548007800281FD0D1
:1004200000F0DAF800F0ECF80028FBD0042813D133
:1004300010A001F031FA1BA11EA000F01FF9002846
:10044000F9D005231EA220A1002000F035F90028D4
:10045000F7D021A001F020FA00F09EFA0028FBD08E
:1004600070BD0000180000200048004025730A00FD
:10047000000000200D0A5265636F6E6E656374693B
:100480006E6720746F20686F7473706F7420616E74
:100490006420736572766572202E2E2E2E2E2E0D00
:1004A0000A000000796168626F6F6D383930373249
:1004B00039000000596168626F6F6D320000000002
:1004C00038303836000000003139322E3136382EBF
:1004D000322E3130310000000D0A5265636F6E6EAE
:1004E00065637420746F20686F7473706F7420611B
:1004F0006E642073657276657220737563636573CD
:100500007366756C6C790D0A000000002DE9F041EE
:100510001D4C0E461F46B4F8001415466FF30E012D
:10052000A4F80014024619A11A4801F03DF956EA50
:10053000050025D0384600F055FAB4F80014002024
:10054000C1F30E016054214613A001F0A5F9B4F8DF
:1005500000046FF30E00A4F80004B4F8000420F4C3
:100560000040A4F800042EB1314625B12046FFF723
:100570006AFE28B929460448FFF765FE002800D026
:100580000120BDE8F08100001800002025730D0A4D
:1005900000000000004800402573000000B585B051
:1005A00008B1012200E0002206A1684601F084F9AA
:1005B0004FF4FA73002207A16846FFF7A7FF05B0C2
:1005C00000BD000041542B4349504D55583D256412
:1005D000000000004F4B000010B54FF47A7000F09F
:1005E00001FA05A1054801F0DFF8BDE810404FF41D
:1005F000FA7000F0F7B900002B2B2B0000480040E8
:1006000010B54FF4FA7300220DA10EA0FFF77EFF84
:10061000A0B110A11248FFF716FE08B1022010BDCC
:1006200010A10F48FFF70FFE08B1032010BD10A165
:100630000B48FFF708FE08B1042010BD002010BDD4
:100640004F4B000041542B43495053544154555390
:10065000000000005354415455533A320D0A000033
:10066000180000205354415455533A330D0A0000EA
:100670005354415455533A340D0A000000B59FB00D
:100680000B46024606A1684601F016F941F288338E
:10069000002208A16846FFF739FF1FB000BD000027
:1006A00041542B43574A41503D222573222C222589
:1006B000732200004F4B0000F0B5B9B00F4606465C
:1006C0001D461446642101A8FFF7B2FD16B1012EA4
:1006D0000BD103E03B4610A2009402E03B460FA280
:1006E00000940FA101A801F0E7F8052D06D201AB97
:1006F0002A460FA11AA801F0DFF804E001AA11A10F
:100700001AA801F0D9F84FF47A6312A215A11AA819
:10071000FFF7FCFE39B0F0BD544350005544500083
:10072000222573222C222573222C25730000000021
:1007300041542B43495053544152543D25642C2578
:100740007300000041542B43495053544152543DCF
:1007500025730000414C5245415920434F4E4E45B0
:10076000435400004F4B000040F6C41328B1012849
:1007700007D0022809D00020704706A208A109A0CE
:1007800006E004A206A10AA002E002A204A10BA0B6
:10079000FFF7BCBE6E6F206368616E676500000086
:1007A0004F4B000041542B43574D4F44453D3100C2
:1007B00041542B43574D4F44453D320041542B4348
:1007C000574D4F44453D330010B51FA001F064F86C
:1007D00025A001F061F800BFFFF790FD0028FBD0D5
:1007E00028A001F059F80020FFF7BEFF0028FAD03A
:1007F0002FA001F051F835A138A0FFF73FFF0028E6
:10080000F9D039A001F048F80020FFF7C7FE002812
:10081000FAD03CA001F040F8052343A244A10020F7
:10082000FFF74AFF0028F7D045A001F035F800BFD8
:1008300000F0B2F80028FBD04AA001F02DF8BDE886
:1008400010404FA001F028B80D0AE6ADA3E59CA822
:10085000E9858DE7BDAE2045535038323636202E1F
:100860002E2E2E2E2E0D0A000D0AE4BDBFE883BDEC
:1008700045535038323636202E2E2E2E2E2E0D0A6F
:10088000000000000D0AE6ADA3E59CA8E9858DE710
:10089000BDAEE5B7A5E4BD9CE6A8A1E5BC8F3A20B6
:1008A000535441202E2E2E2E2E2E0D0A0000000015
:1008B0000D206E636F6E6E656374696E6720576995
:1008C0004669202E2E2E2E2E2E0D0A00796168628A
:1008D0006F6F6D3839303732390000005961686206
:1008E0006F6F6D32000000000D0AE7A681E6ADA231
:1008F000E5A49AE8BF9EE68EA5202E2E2E2E2E2E43
:100900000D0A00000D0AE6ADA3E59CA8E8BF9EE62F
:100910008EA5E69C8DE58AA1E599A8202E2E2E2E87
:100920002E2E0D0A0000000038303836000000007E
:100930003139322E3136382E322E3130310000002E
:100940000D0AE8BF9BE585A5E9808FE4BCA0E58F93
:1009500091E98081E6A8A1E5BC8F202E2E2E2E2EB7
:100960002E0D0A000D0AE9858DE7BDAE20455350D6
:100970003832363620E5AE8CE6AF950D0A00000021
:100980000D0AE5BC80E5A78BE9808FE4BCA02E2E84
:100990002E2E2E2E0D0A000010B54FF4FA742346A9
:1009A000002207A107A0FFF7B1FD002807D02346CA
:1009B000BDE8104007A202A107A0FFF7A7BD10BD28
:1009C0004F4B000041542B4349504D4F44453D315E
:1009D000000000003E00000041542B4349505345A5
:1009E0004E44000070B5044600F00EF80546601C49
:1009F00002D004480078044400F006F8401BA042EE
:100A0000FAD370BD040000200148806870470000E0
:100A10000400002002488168027811448160704718
:100A2000040000200B4810B5016841F4007101601A
:100A3000016841F480610160016841F480710160E6
:100A4000032000F061F80F2000F006F800F024F811
:100A5000002010BD003C024070B50D4D04464FF41F
:100A60007A712878B1FBF0F00A490968B1FBF0F01F
:100A700000F0DCFA48B9102C07D200222146501EA3
:100A800000F022F800206C6070BD012070BD0000F5
:100A900004000020100000200A4808B5016841F455
:100AA00080410160006800F4804000900548001F0C
:100AB000016841F080510160006800F080500090B2
:100AC00008BD000044380240F0B40E4B1B680C46D1
:100AD000C3F30223C3F10705042D00D90425191D12
:100AE000072901D2002300E0DB1E012606FA05F1EA
:100AF000491E214099409E40761E16403143F0BC6D
:100B000000F00BBF0CED00E0064900F0070208689A
:100B10004FF6FF03184040EA0220034A10430860E2
:100B2000704700000CED00E00000FA052DE9F047E9
:100B30000E46050065D0DFF81481D8F80000F7B242
:100B400000F00700B04207D288F80070D8F8000023
:100B500000F00700B04254D128683D4C810712D5FF
:100B6000400703D5206840F4E05020602878000753
:100B700003D5206840F4604020602068A96820F018
:100B8000F000084320602878C0072DD030496868FD
:100B90000839012812D0022813D0032811D009687F
:100BA000890700292DDA216821F003010143216022
:100BB000FFF72AFF814641F2883A0EE0096889036F
:100BC000EFE709688901ECE7FFF71EFFA0EB0901D9
:100BD000514502D90320BDE8F0872068696800F01C
:100BE0000C00B0EB810FEFD1D8F80010404601F0B7
:100BF0000701B14207D90770006800F00700B04252
:100C000001D00120E7E72878400705D52068E9688A
:100C100020F4E050084320602878000706D52068BB
:100C2000296920F4604040EAC100206000F018F813
:100C30002168084AC1F30311515CC84006490860A5
:100C400006480068FFF708FF0020C4E7003C0240A8
:100C500008380240521B0008100000200800002045
:100C6000154810B5006810F00C02144813D041105C
:100C7000042A0FD0082A0ED10F4C241F22682368A3
:100C800002F03F025B0207D52068C0F38810A0FB8A
:100C9000010106E0084610BD2168C1F38811A1FBDF
:100CA00000010023FFF78CFA2168C1F30141491CC0
:100CB0004900B0FBF1F010BD083802400024F400F8
:100CC0002DE9F84F04006ED02078DFF84C93C00770
:100CD000A9F104054AD009F104000168C1F38101BA
:100CE000012908D00068C0F3810002280AD1D9F890
:100CF0000000400206D52868800337D560680028C8
:100D0000E1D033E06068B0F5803F10D0B0F5A02F9F
:100D1000286810D020F480302860286820F48020D3
:100D200028606068A8B1FFF76FFE06460DE02868EE
:100D300040F48030F4E740F480202860F7E700BFFB
:100D4000FFF762FE801B642873D828688003F7D5FC
:100D50000CE0FFF759FE064605E000BFFFF754FE22
:100D6000801B6428F0D828688003F7D42078DFF847
:100D7000AC8280074FF0000A3ED5A748001D0168ED
:100D800011F00C0F08D00068C0F3810002280BD1CD
:100D9000D9F80000400207D42868800716D5E0681B
:100DA000012800D112E033E1E068B8B10120C8F8B1
:100DB0000000FFF729FE064605E000BFFFF724FE0E
:100DC000801B0228C0D828688007F7D528682169C9
:100DD00020F0F80040EAC10028600DE0C8F800A04B
:100DE000FFF712FE064604E0FFF70EFE801B022806
:100DF0001FD828688007F7D42078000722D5864FAF
:100E000087486169703771B101210160FFF7FCFD0E
:100E1000064604E0FFF7F8FD801B022809D8386871
:100E20008007F7D50EE0C0F800A0FFF7EDFD0646FD
:100E300005E082E0FFF7E8FD801B02287DD83868D6
:100E40008007F7D42078400768D5DFF8CCB10027B9
:100E50000BF13C0BDBF80000C0000BD4DBF80010FA
:100E600041F08051CBF80010DBF80000012700F0C2
:100E7000805000906B4E3068C00510D4306840F44C
:100E800080703060FFF7C0FD009005E0FFF7BCFD0B
:100E90000099401A022850D83068C005F6D55E4E39
:100EA000A0686C3601280FD00528306810D020F0DB
:100EB00001003060306820F004003060A068B8B1F4
:100EC000FFF7A2FD00900FE0306840F00100F4E76A
:100ED00040F004003060F7E7FFF796FD0099411AF3
:100EE00041F28830814266D830688007F4D50EE040
:100EF000FFF78AFD009007E0FFF786FD0099411A91
:100F000041F28830814256D830688007F4D42FB13E
:100F1000DBF8001021F08051CBF80010A069C8B3B5
:100F20003D49091D0968C1F3810102294AD00228FF
:100F3000504607D0C8F8600000E03CE0FFF764FDD1
:100F400004463BE04746C8F86000FFF75DFD0646F3
:100F500005E000BFFFF758FD801B02282BD828684A
:100F60008001F7D4D4E907010843A16A2E4A490851
:100F700002EB0141626A41EA8211084394F82C10A5
:100F800040EA0161C9F8001001203866FFF73CFD16
:100F9000044606E03EE000BFFFF736FD001B0228D6
:100FA00009D828688001F7D534E000BFFFF72CFD91
:100FB000001B022802D90320BDE8F88F28688001B1
:100FC000F4D427E00128F7D0D9F80000E26900F452
:100FD000800191421CD1226A00F03F01914217D159
:100FE00047F6C071626A0140B1EB821F10D1A26A5C
:100FF0004FF0FF3300F4403103EB5202B1EB024FEC
:1010000006D194F82C1000F07060B0EB016F01D0A5
:101010000120D1E70020CFE704380240000047421A
:10102000800E4742007000400000FFFF10B5401ED8
:10103000B0F1807F01D3012010BD4FF0E02460614A
:101040000F21601700F069FC0020A06107202061DB
:10105000002010BDFEE70000044908B50A680243FD
:101060000A6009680140009108BD00003038024064
:10107000F0B50A680F2692FAA2F2B2FA82F30324BC
:101080008AE001279F4015EA07027DD04D68012DB7
:1010900001D0022D1BD18D68876892FAA2FCBCFAA0
:1010A0008CFC4FEA4C0C04FA0CFC27EA0C0792FA71
:1010B000A2FCBCFA8CFC4FEA4C0C05FA0CF52F4351
:1010C0008760CD684768554397432F4347600F6952
:1010D000D0F80CC092FAA2F5B5FA85F54FEA450EA4
:1010E00004FA0EF52CEA050C92FAA2F5B5FA85F58C
:1010F0006D00AF404CEA070CC0F80CC04D68022DE3
:1011000033D192FAA2F5B5FA85F5082D15D2D1F8AA
:1011100014C0056A92FAA2F7B7FA87F7BF0006FA79
:1011200007F7BD4392FAA2F7B7FA87F7BF000CFAA8
:1011300007FC45EA0C05056217E0D1F814E0476AA0
:10114000150A95FAA5FCBCFA8CFC4FEA8C0C06FA41
:101150000CFC95FAA5F5B5FA85F5AD0027EA0C0764
:101160000EFA05FE47EA0E0747624D68076892FAD5
:10117000A2FCBCFA8CFC4FEA4C0C04FA0CFE27EAE9
:101180000E0792FAA2F200E005E0B2FA82F25200F3
:1011900095402F4307605B1C0A681546DA407FF4D0
:1011A00070AF0020F0BD10B5044600F0F9F92060E2
:1011B00000F0CCF9606000F0D7F9A060606800F042
:1011C000E1F9E06010BD000010F10C0050E8001FD4
:1011D00041F0100140E80012002AF7D170470000EA
:1011E00010F10C0050E8001F41F0200140E800120F
:1011F000002AF7D1704700007FB50446C0680D464D
:101200000126C0F34030C0BBE9686868AA6908439A
:10121000296911430843E16849F20C62914308438C
:10122000E060A868216921F44051014321616869A7
:10123000616921F44071014361616846FFF7B3FFC2
:101240000F48844208D00F4884420DD00E48844293
:101250000AD00E48844201D1039906E00C4884422A
:1012600002D00C48844208D1029931B12B6823B1D5
:1012700000262046AA6900F00FF804B0304670BD81
:1012800000100140004400400048004000140140AC
:10129000004C0040005000402DE9F0410646192066
:1012A000A1FB00011F46002364243225B2F5004F44
:1012B00027D0BB0FBA00FEF783FF0146B0FBF4F066
:1012C0006FF01802504301EB800005EB0010B0FBFB
:1012D000F4F000F0F002B1FBF4F002EB0012B1FB0D
:1012E000F4F06FF01803584301EB800005EB001099
:1012F000B0FBF4F000F00F00104480B2B060BDE825
:10130000F081FA195B41FEF75BFF0146B0FBF4F098
:101310000201B1FBF4F06FF01803584301EB8000B9
:1013200005EBC000B0FBF4F000F0F80002EB400267
:10133000B1FBF4F0584301EB800005EBC000B0FBBB
:10134000F4F000F00700D7E7114808B5016841F054
:1013500080010160016801F080010091016841F0A5
:1013600004010160016801F004010091016841F08D
:1013700002010160016801F002010091016841F081
:1013800001010160006800F00100009008BD00004C
:101390003038024010B58EB01C216846FEF748FF79
:1013A000182107A8FEF744FF2648016841F0100104
:1013B0000160006800F010000D900120FFF74CFE66
:1013C0004FF4C06007900220089003200024CDE96C
:1013D00009040720CDE90B4007A91B48FFF748FE89
:1013E0001A4800680022C0F30220114600F094F869
:1013F0000146252000F081FA252000F071FA4FF413
:10140000E130CDE900040C200294CDE903400594BD
:1014100006940F4C69462046FFF7EEFE206920F443
:1014200090402061606920F02A006061E06840F42B
:101430000050E0602046FFF7D3FE2046FFF7C4FED1
:101440000EB010BD44380240000002400CED00E038
:101450000010014010B58EB01C216846FEF7E8FE72
:10146000182107A8FEF7E4FE2648016841F4802110
:101470000160006800F480200D900220FFF7ECFD71
:101480004FF4406007900220089003200024CDE92B
:1014900009040720CDE90B4007A91B48FFF7E8FD29
:1014A0001A4800680022C0F30220114600F034F808
:1014B0000146272000F021FA272000F011FA4FF40E
:1014C000E130CDE900040C200294CDE903400594FD
:1014D00006940F4C69462046FFF78EFE206920F4E3
:1014E00090402061606920F02A006061E06840F46B
:1014F0000050E0602046FFF773FE2046FFF764FED1
:101500000EB010BD40380240000402400CED00E077
:1015100000480040FEE7FEE730B500F00703C3F1E6
:101520000704042C00D90424181D072801D2002325
:1015300000E0DB1E012505FA04F0401E084098403B
:101540009D406D1E1540284330BD70470449096811
:10155000044A01F0F0010909515CC84070470000DD
:1015600008380240521B000804490968044A01F483
:10157000E05102EB91210978C840704708380240D9
:10158000621B000804490968044A01F4604102EB47
:1015900051310978C840704708380240621B000882
:1015A0000748006810F00C01064807D0042904D051
:1015B000082903D1082000F009B80348704700004B
:1015C000083802400024F40000127A0010B5104AD6
:1015D00004460020116811F480030E4903D0B3F5CE
:1015E000800F00D14910082C11D1106800F03F0085
:1015F000B1FBF0F01168C1F3881148431168012272
:1016000001F4403102EB11414900B0FBF1F010BD93
:10161000043802400024F4007047FFF7FBB90000D3
:1016200030B593B030216846FEF702FE14210CA8B5
:10163000FEF7FEFD1E480025016841F08051016063
:10164000006800F0805011901A48016841F4804110
:1016500001600068022400F4804011900120009095
:10166000000401908001CDE90640082008904FF465
:10167000A870CDE9090404200B906846FFF720FB11
:1016800008B172B6FEE70CA90F2081E831004FF4D3
:10169000A0500F904FF48050109005210CA8FFF738
:1016A00045FA002801D072B6FEE713B030BD000045
:1016B00040380240007000400248016841F4700167
:1016C0000160704788ED00E030B515490868C0F347
:1016D00040121448B2B14A68D3B2B0F8002440F2C4
:1016E000FF34C2F30E02A2420CD2B0F80024B0F8CC
:1016F0000044C2F30E028518521C62F30E04A0F8D7
:1017000000442B700A68C2F30012002A06D0B0F819
:10171000002442F40042A0F80024486830BD0000D4
:10172000001001401A04002070B519490868C0F380
:1017300040121848B2B14A68D3B2B0F8002440F25F
:10174000FF34C2F30E02A2420CD2B0F80024B0F86B
:101750000044C2F30E028518521C62F30E04A0F876
:1017600000442B700A68C2F30012002A0ED0B0F8B1
:10177000002442F40042A0F80024486806A105486D
:10178000FEF761FD00B101200649087070BD000040
:101790000048004018000020434C4F5345440D0AB8
:1017A00000000000000000200FB42DE9FF470EAA42
:1017B000374E4FF000092AE05C2B02D0252B0CD0CD
:1017C00009E0491C0D910B786E2B03D0722B17D1B9
:1017D000337800E07378436012E0491C0D910B7878
:1017E000642B1CD0732B0BD108CA06E0446004683C
:1017F000C4F3C014002CFAD05B1C1C78002CF5D16B
:10180000491C0D910168C1F3C0110029FAD00D994E
:101810000B78002BD0D1BDE8FF075DF814FB02CA9E
:1018200000276D46002921D007DA4FF02D038DF8EF
:101830000030C1F1000105F1010542F210744FF0D2
:101840000A0C00BF91FBF4F353EA070806D003F13A
:10185000300705F8017B03FB1411012794FBFCF40E
:10186000002CEFDC85F8009069460CE030218DF803
:1018700000108DF80190F7E743600368C3F3C013CD
:10188000002BFAD0491C0B78002BF5D10D99B7E746
:1018900001000020FEE700000FB4054B10B503A9BE
:1018A000044A029800F058F810BC5DF814FB0000E0
:1018B0001D1B0008140000200FB4084B10B504A92C
:1018C00002AA039800F048F8044602A9002000F09C
:1018D0001FF9204610BC5DF814FB0000111B000826
:1018E000002809DB00F01F0201219140400980001F
:1018F00000F1E020C0F8001170470907090E002828
:1019000004DB00F1E02080F80014704700F00F00C5
:1019100000F1E02080F8141D70470907090E002827
:1019200004DB00F1E02080F80014704700F00F00A5
:1019300000F1E02080F8141D704702E008C8121F73
:1019400008C1002AFAD170477047002001E001C1A8
:10195000121F002AFBD170472DE9FF4F8BB09A462A
:101960000F460546002606E025280BD052460D9965
:1019700090476D1C761C28780028F5D10FB03046B2
:10198000BDE8F08F0024A0460122604900E0044336
:1019900015F8013F203B02FA03F00842F7D12878FE
:1019A0002E2817D115F8010F44F004042A280ED070
:1019B0006FF02F022878A0F1300109290AD808EB2E
:1019C000880102EB410100EB01086D1CF2E757F8BA
:1019D000048B6D1C287869283ED006DC0028CDD009
:1019E00063280BD0642804D136E0732810D0752802
:1019F0004BD052460D999047761C85E017F8040BA2
:101A00008DF8000000208DF80100E946012003E078
:101A100057F8049B4FF0FF3061074FF0000401D4EA
:101A20000AE0641C44450DDA8442FADB19F804101C
:101A30000029F6D106E0641C8442FCDB19F804108E
:101A40000029F8D1264404E019F8010B52460D99FB
:101A50009047641EF8D257E001CF4FF00A0B0028E0
:101A600002DA40422D2102E0210504D52B218DF818
:101A70002410012103E0E10705D02021F7E70DF153
:101A8000200908910CE00021F9E701CF4FF00A0B83
:101A9000F9E75946FEF7E9FB01F1300209F8012D9B
:101AA0000028F6D1ADEB090000F1200B600701D44E
:101AB0004FF00108D84502DDA8EB0B0000E0002044
:101AC0008046002406E009A85246005D0D99904723
:101AD000641C761C08988442F5DB04E030205246F2
:101AE0000D999047761CB8F10001A8F10108F5DCCA
:101AF00005E019F8010B52460D999047761CBBF191
:101B00000001ABF1010BF4DC6D1C34E70928010086
:101B10000A68531C0B60107070470000044AC1B281
:101B200051601168C1F3C0110029FAD0704700005C
:101B300000100140FEF776FFFFF772FDFFF704FC8F
:101B4000FFF728FCFFF786FCFEF73EFEFEF732FCAF
:101B5000FCE700000000000000000102030406078B
:101B60000809000000000102030400008C1B0008AB
:101B700000000020180000003A190008A41B00080B
:101B800018000020080C00004A190008000D0A0087
:101B90000100000010000000000000000024F4001C
:041BA0000000000041
:040000050800018965
:00000001FF
